:100000000C942A000C9447000C9447000C94470071
:100010000C9447000C9447000C9447000C94470044
:100020000C9447000C9447000C9447000C94470034
:100030000C9447000C9447000C9447000C94470024
:100040000C9447000C9447000C9447000C94470014
:100050000C94470011241FBECFE5D8E0DEBFCDBF12
:1000600010E0A0E6B0E0EAEDF2E002C005900D92EB
:10007000A836B107D9F720E0A8E6B0E001C01D928C
:10008000AC36B207E1F70E942A010C946B010C9484
:10009000000084B3836C84BB81B38FEF81BB85BBCD
:1000A0000895EF92FF920F931F93CF93DF938C01EC
:1000B0009C01ADECBCEC0E945C01AC0156954795EF
:1000C0005695479556954795CA01880F991F440F35
:1000D000551F440F551F440F551F480F591F241B10
:1000E000350BA90198010E945C01FC01F695E7958A
:1000F000F695E795F695E7959F010E945C01EC0166
:10010000D695C795D695C795D695C795CE01880F34
:10011000991FCC0FDD1FCC0FDD1FCC0FDD1FC80FCB
:10012000D91FCF018C1B9D0BEC01980136952795AB
:1001300036952795ABE7B4E10E945C017C01F6940B
:10014000E7949701ADECBCEC0E945C01FC01F695D4
:10015000E795F695E795F695E795CF01880F991FF6
:10016000EE0FFF1FEE0FFF1FEE0FFF1FE80FF91F2F
:10017000D701AE1BBF0BFD0198013695279536952B
:10018000279536952795A5ECB0E20E945C018C017D
:10019000129502950F7001271F7001279801ADEC91
:1001A000BCEC0E945C0196958795969587959695EF
:1001B00087959C01220F331F880F991F880F991F65
:1001C000880F991F820F931F9801281B390BC901B3
:1001D0005527DA01A05ABF4F2C9122BB22EC25BB38
:1001E000A3ECB9E01197F1F700C000002FEF25BB99
:1001F000DD27C05ADF4F388132BB31EC35BBA3EC71
:10020000B9E01197F1F700C0000025BBFF27E05AC5
:10021000FF4F308132BB33E835BBE3ECF9E0319777
:10022000F1F700C0000025BB9927FC01E05AFF4F01
:10023000808182BB83E485BB83EC99E00197F1F771
:1002400000C0000025BBDF91CF911F910F91FF905F
:10025000EF9008950E9449001ABA8FEF8BBB8091EE
:100260006A0090916B00019721F48EE899E10E9459
:100270005100C8990AC081E090E090936B00809390
:100280006A001092690010926800CF990AC010921B
:100290006B0010926A0081E090E090936900809377
:1002A000680080916800909169000197C1F68AE822
:1002B0009CE00E945100D3CFA29FB001B39FC00128
:1002C000A39F700D811D1124911DB29F700D811D82
:0A02D0001124911D0895F894FFCF4A
:0802DA000D8381258F11130033
:00000001FF
